:0400000056EF00F0C7
:1000080000C015F0F2A21ED0F2A81CD0204A212A66
:10001800000E211802E10A0E20180AE1000E23182A
:1000280002E1090E221804E1206A216A226A236A81
:10003800000E211802E10A0E201804E1224A232AA0
:10004800206A216AF0A021D0F0A61FD0000E211846
:1000580002E1000E201807E1000E231802E1000E4D
:10006800221801E112D0000E211802E1000E20181A
:1000780008E10A0E206E000E216E010E225E000EAF
:10008800235A010E205E000E215AF090F29215C0FC
:0400980000F0110063
:10009C000900F5CFE6FF0006FBE10106F9E11200CD
:1000AC003F0E166E060E176E5B0E186E4F0E196E07
:1000BC00660E1A6E6D0E1B6E7D0E1C6E070E1D6E7F
:1000CC007F0E1E6E6F0E1F6E206A216A226A236AD3
:1000DC00070EC16E956A836A966A846A010E936EE6
:1000EC00816AF18CF18AF292F288F090F086F28EAD
:1000FC00246A256A800E2518006E800E005C02E1D1
:10010C00190E245C2BE2160E2024E96E000E212021
:10011C00EA6EEECF83FF8492340E0C6EF10E0D6EF0
:10012C000D2EFED70C2EFCD7000000008482160E7C
:10013C002224E96E000E2320EA6EEECF83FF84901A
:10014C00340E0C6EF10E0D6E0D2EFED70C2EFCD750
:10015C00000000008480244A252ACCD7C9D7FFD7B9
:020000040030CA
:0D000100220F0EFF0181FF0FC00FE00F4026
:00000001FF
