:100000000EEF00F00000000000EF00F00000000024
:0A0010000000000000000000F3D71C
:10001C00936A816A816A030E0B6E8A0E0C6E550E02
:10002C000D6E0D2EFED70C2EFCD70B2EFAD7000022
:10003C000000010E816E030E0B6E8A0E0C6E550EB7
:10004C000D6E0D2EFED70C2EFCD70B2EFAD7000002
:10005C000000030E0B6E8A0E0C6E550E0D6E0D2EDF
:10006C00FED70C2EFCD70B2EFAD700000000020E88
:10007C00816E030E0B6E8A0E0C6E550E0D6E0D2ED0
:10008C00FED70C2EFCD70B2EFAD700000000030E67
:10009C000B6E8A0E0C6E550E0D6E0D2EFED70C2EA1
:1000AC00FCD70B2EFAD700000000040E816E030E55
:1000BC000B6E8A0E0C6E550E0D6E0D2EFED70C2E81
:1000CC00FCD70B2EFAD700000000030E0B6E8A0E25
:1000DC000C6E550E0D6E0D2EFED70C2EFCD70B2E66
:1000EC00FAD700000000080E816E030E0B6E8A0E0C
:1000FC000C6E550E0D6E0D2EFED70C2EFCD70B2E46
:10010C00FAD700000000030E0B6E8A0E0C6E550E13
:10011C000D6E0D2EFED70C2EFCD70B2EFAD7000031
:10012C000000100E816E030E0B6E8A0E0C6E550EB7
:10013C000D6E0D2EFED70C2EFCD70B2EFAD7000011
:10014C000000030E0B6E8A0E0C6E550E0D6E0D2EEE
:10015C00FED70C2EFCD70B2EFAD700000000200E79
:10016C00816E030E0B6E8A0E0C6E550E0D6E0D2EDF
:10017C00FED70C2EFCD70B2EFAD700000000030E76
:10018C000B6E8A0E0C6E550E0D6E0D2EFED70C2EB0
:10019C00FCD70B2EFAD700000000400E816E030E28
:1001AC000B6E8A0E0C6E550E0D6E0D2EFED70C2E90
:1001BC00FCD70B2EFAD700000000030E0B6E8A0E34
:1001CC000C6E550E0D6E0D2EFED70C2EFCD70B2E75
:1001DC00FAD700000000800E816E030E0B6E8A0EA3
:1001EC000C6E550E0D6E0D2EFED70C2EFCD70B2E55
:0A01FC00FAD7000000000ED7FFD76D
:020000040030CA
:0E000000248C1F1EFF8381FF0FC00FE00F40F6
:00000001FF
