:1000000016EF00F00000000000EF00F0000000001C
:0A0010000000000000000000F3D71C
:10001C000900F5CFE6FF0006FBE10106F9E112004D
:10002C00010E156E030E166E070E176E0F0E186E60
:10003C001F0E196E3F0E1A6E7F0E1B6EFF0E1C6E7E
:10004C00070EC16E946A826A010E936E818A000E4D
:10005C001E1802E1000E1D1804E1080E1D6E000EA4
:10006C001E6E81BA0CD0010E1D5E000E1E5A150EAE
:10007C001D24E96E000E1E20EA6EEECF82FF020EEA
:10008C000B6E040E0C6EBA0E0D6E0D2EFED70C2ED2
:0C009C00FCD70B2EFAD70000DAD7FFD7F4
:020000040030CA
:0D000100220F0EFF0181FF0FC00FE00F4026
:00000001FF
