:1000000016EF00F00000000000EF00F0000000001C
:0A0010000000000000000000F3D71C
:10001C000900F5CFE6FF0006FBE10106F9E112004D
:10002C00156A166A176A186A3F0E196E060E1A6E52
:10003C005B0E1B6E4F0E1C6E660E1D6E6D0E1E6ED5
:10004C006D0E1F6E070E206E7F0E216E6F0E226ED0
:10005C00070EC16E926A80808082956A836A236AD9
:10006C00246A800E2418006E800E005C02E1190ECA
:10007C00235C2BE2190E1524E96E000E1620EA6E95
:10008C00EECF83FF8090340E0C6EF10E0D6E0D2EA4
:10009C00FED70C2EFCD7000000008080190E172410
:1000AC00E96E000E1820EA6EEECF83FF8092340EBC
:1000BC000C6EF10E0D6E0D2EFED70C2EFCD7000023
:1000CC0000008082234A242ACCD7154A162A000E17
:1000DC00161802E10A0E151804E1156A166A174A79
:1000EC00182A000E181802E1060E171804E1176AF8
:0A00FC00186A156A166AB3D7FFD719
:020000040030CA
:0D000100220F0EFF0181FF0FC00FE00F4026
:00000001FF
