:1000000016EF00F00000000000EF00F0000000001C
:0A0010000000000000000000F3D71C
:10001C000900F5CFE6FF0006FBE10106F9E112004D
:10002C004AEC00F0070EC16E946A826A010E936E60
:10003C00818A000E261802E1100E251802E1256AAD
:10004C00266A81BA0AD0254A262A150E2524E96E7D
:10005C00000E2620EA6EEECF82FF020E0B6E040E0F
:10006C000C6EBA0E0D6E0D2EFED70C2EFCD70B2E71
:08007C00FAD70000DED7FFD720
:1000940010EE15F0100E006E010E016E840EF66E59
:0E00A400000EF76E000EF86E0EEC00F012006B
:100084000103070F1F3F7FFF80C0E0F0F8FCFEFF75
:020000040030CA
:0D000100220F0EFF0181FF0FC00FE00F4026
:00000001FF
