:10000000BEEF00F00000000000EF00F00000000074
:0A0010000000000000000000F3D71C
:10001C00086A096A100E0C6E013408360936045051
:10002C00085E0550D8A0053C095ED8B007D0045036
:10003C0008260550D8B0053C0926D8900036013664
:06004C000C2EEAD71200A1
:100052000CD00E0E836E15D00D0E836E12D00B0EC9
:10006200836E0FD0070E836E0CD01C50000AF1E095
:100072001C50010AF1E01C50020AF1E01C50030A74
:10008200F1E0DE0E1B24F66E010EF76E000EF72273
:10009200000EF86E000EF8220900F5CF82FF120062
:1000A200E80E046E030E056E1BC000F01CC001F0CA
:1000B200B4DF1DC0E1FF1EC0E2FF00C0E6FFE80E94
:1000C200046E030E056E1BC000F01CC001F0A5DF1C
:1000D20008C000F009C001F000C01BF001C01CF014
:1000E200010E1D241F6E000E1E20206E640E046E73
:1000F200000E056E92DF1FC0E1FF20C0E2FF00C0CC
:10010200E6FF640E046E000E056E1BC000F01CC0FC
:1001120001F083DF08C000F009C001F000C01BF04D
:1001220001C01CF0020E1D241F6E000E1E20206E48
:100132000A0E046E000E056E70DF1FC0E1FF20C0C4
:10014200E2FF00C0E6FF030E1D241F6E000E1E20FC
:10015200206E0A0E046E000E056E1BC000F01CC05D
:1001620001F05BDF08C000F009C001F01FC0E1FF31
:0A01720020C0E2FF00C0E6FF12000B
:10017C00070EC16E010E936E946A956A826A0E0E1A
:10018C00836E81CF19F019C01BF0000E1C6E150E7A
:10019C001D6E000E1E6E7FDF1A6A040E1A5C17E2CB
:1001AC00150EE96E000EEA6E1A50E926D8B0EA2A4E
:1001BC00EECF1BF01AC01CF046DF270E0C6EF50EAE
:1001CC000D6E0D2EFED70C2EFCD71A2AE6D7D9D7DA
:0201DC00FFD74B
:0A01DE003F065B4F666D7D077F6FE3
:020000040030CA
:0D000100220F0EFF0181FF0FC00FE00F4026
:00000001FF
