:0400000050EF05F0C8
:1000080000C019F001C018F002C017F00CC016F0BB
:100018000DC015F0F2A44BD084948480C284C2A48D
:1000280001D0FDD7C4CF01F0006AC3500026000EEE
:10003800012200C03DF001C03EF030EC05F028C0C0
:1000480004F029C005F02AC006F02BC007F018D923
:1000580000C03FF001C040F002C041F003C042F0D0
:10006800000E046E000E056E480E066E850E076EB5
:1000780007D900C01AF001C01BF002C01CF003C071
:100088001DF000C043F001C044F002C045F003C0B9
:1000980046F02E0E476E000E486ED2DA010E436E01
:1000A800010E446E2E0E456E000E466E8CDAF294EA
:1000B8009E9C19C000F018C001F017C002F016C0CD
:0800C8000CF015C00DF0110051
:1000D0000F0E0C6E470E0D6E0D2EFED70C2EFCD79C
:0600E00000000000120008
:0600E60000000000120002
:0A00EC00210E0D6E0D2EFED712003E
:1000F6000B840BAE86EF00F0010E036E026A016AF6
:0A010600006A0A360232FF0E1200F2
:100110000B820BAE92EF00F0036802680168006882
:080120000A360232FF0E120044
:0E012800026A016A006A086A036A000E120089
:080136000AAE029E000E120049
:10013E0055BE02D0839E01D0838E55BC02D0839CC7
:10014E0001D0838C55BA02D0839A01D0838A55B8D8
:10015E0002D0839801D083883CB002D0838401D032
:10016E0083948386B9DF839655B602D0839E01D0E1
:10017E00838E55B402D0839C01D0838C55B202D0AD
:10018E00839A01D0838A55B002D0839801D0838898
:10019E003CB002D0838401D0839483869DDF839606
:0C01AE003CA002D08EDF01D09ADF1200CE
:1001BA000A6A0350D8A40A800750D8A40A820A50AF
:1001CA00D8B440EF01F0030AD8B4F9EF00F00AB04E
:1001DA00F4EF00F006AE3EEF01F03CEF01F002AEA4
:1001EA003CEF01F03EEF01F00250800B0A6E029ED6
:1001FA000650800B069E0A18D8B40AEF01F00A507E
:10020A00D8B43CEF01F03EEF01F00750035CD8B4DC
:10021A0014EF01F0D8A030EF01F036EF01F00650EC
:10022A00025CD8B41EEF01F0D8A030EF01F036EF2F
:10023A0001F00550015CD8B428EF01F0D8A030EFE6
:10024A0001F036EF01F00450005CD8B440EF01F041
:10025A00D8B036EF01F00A52D8B43EEF01F03CEFC5
:10026A0001F00A52D8B43CEF01F03EEF01F0D88019
:0E027A001200D8901200D880D8841200120012
:10028800086A096A000E07620364C9EF01F00250A8
:1002980006180A6E075003267E0ED8A05AEF01F002
:1002A800035ED8B0CDEF01F05EEF01F0035ED8A099
:1002B800D1EF01F0028E068E02C00EF001C00BF0E5
:1002C80000C00DF000500402F4CF0CF001500502FC
:1002D800F4CF00F0F3CF08F00402F3500C26F450EA
:1002E8000822000E00220D500502F3500C26F4508F
:1002F8000822000E002202500402F3500826F4508F
:10030800002202500502016A000E0122F350002665
:10031800F45001220D500602F3500826F450002232
:10032800026A000E012202220B500602F350002638
:10033800F4500122000E02220E500602F35001264C
:10034800F450022202BEB1EF01F008360036013641
:1003580002360306D8B4D1EF01F0C4EF01F0D8801B
:10036800800E08640030000E002201220222D8A06C
:10037800C4EF01F0023201320032034ACDEF01F03E
:100388000AAE029E000ED3EF01F0010EC9DED3EFD4
:1003980001F0020EB9DED3EF01F0040EA8DE120060
:0C03A8003C9051C055F0C7DE3C801200B4
:1003B40051C004F052C005F004C002F005C003F0BF
:1003C400044A052A53C000F054C001F0534A542A89
:1003D40000C0E9FF01C0EAFF02C0E1FF03C0E2FF81
:1003E400EECFE6FF02C0E9FF03C0EAFFEE5201E0F0
:0C03F400E3D751C000F052C001F012002D
:100400000D6A086A0050D8B4000C04180A6E0ABEBF
:100410000D1E0B6A04AE02D0041E042A00AE02D0E8
:10042000001E002A005004100A6E0ABE1FD004509D
:10043000085E003600340836045008260036060EE2
:100440000C6E00340836045000B0085E00A0082688
:1004500000360C2EF6D700A008260BB015D00DAE36
:10046000000C001E002A081E082A000C04AE09D049
:1004700000BE04D00050086E006AF1D7006A002A5E
:10048000000C001E0B2AD3D7082A0450085CD8A4FD
:0E049000E6D7086A002A00AEE2D7FF0C120081
:10049E000C6A0E6A0250D8A468EF02F001C002F096
:1004AE0000C001F0006A0E860250D8A468EF02F078
:1004BE0001C002F0016A0E960E880250D8B47AEF8F
:1004CE0002F00E50035ED8A4D8A07FEF02F0D890B1
:1004DE0002BE84EF02F0003601360236032E6FEFB5
:1004EE0002F07FEF02F0010E0C6E17DE87EF02F0C6
:1004FE00020E0C6EF9DD87EF02F0040E0C6E14DEA8
:02050E001200D9
:100510002DC000F0000E2DBEFF0E016E00C0D7FFF3
:08052000FF0E2C14D66E120030
:10052800959695949598959A959C959E839683947F
:10053800839E839C839A8398C7DDC6DDC5DD838A45
:1005480083888386CCDD8396BFDD8386C8DD83966A
:10055800BBDD8386C4DD8396B7DD83988386BFDDE4
:100568008396B2DD8386BBDD8396839A838E8386EA
:10057800B6DD8396A9DD839E83888386B0DD839666
:1005880083988386ACDD83969FDD8386A8DD83967A
:1005980083888386A4DD839697DD839883869FDD91
:1005A8008396838E838C838A8388838698DD83965B
:0605B8008BDD3C80120007
:1005BE000900F5CFE6FF0006FBE10106F9E11200A6
:1005CE000FD0800E436E19D0C00E436E16D0940E0F
:1005DE00436E13D0D40E436E10D0800E436E0DD0EA
:1005EE004350010AEEE04350020AEEE04350030A84
:1005FE00EEE04350040AEEE0F0D74404006E4350A0
:10060E00002600C043F000C055F092DD3C90476AD2
:10061E0047504524E96E000E4620EA6EEE520BE07E
:10062E0047504524E96E000E4620EA6EEECF51F09B
:0A063E00B4DE472AEDD73C8012001D
:100648004F6A506A43C04BF044C04CF045C04DF06F
:1006580046C04EF04E50FF0A08E14D50FF0A05E132
:100668004C50FF0A02E14B50FF0A0CE147C051F021
:1006780048C052F01E0E536E000E546E97DE030EE5
:10068800006EE9D1010E496E4DAE0ED0800E4D18A8
:10069800006E00C04DF0492A47C0E1FF48C0E2FFA4
:1006A8002D0EE66E474A482A000E006E4E1808E1E5
:1006B80000504D1805E100504C1802E14B50000A5B
:1006C8000BE147C051F048C052F0260E536E000EA1
:1006D800546E6CDE006ABFD14E50FF0A08E14D50DF
:1006E800000A05E14C50000A02E14B50000A0CE1F7
:1006F80047C051F048C052F0220E536E000E546E9F
:1007080055DE49C000F0A7D1000E046E000E056E3C
:10071800000E066E7F0E076E4BC000F04CC001F055
:100728004DC002F04EC003F044DD010ED8B0000EFB
:10073800006E00521BE04BC000F04CC001F04DC0F1
:1007480002F04EC003F0000E046E000E056E200E7F
:10075800066E820E076E94DD00C04BF001C04CF0AF
:1007680002C04DF003C04EF05006CED7000E046E06
:10077800000E056E200E066E820E076E4BC000F04E
:100788004CC001F04DC002F04EC003F012DD000E67
:10079800D8B0010E006E00521BE04BC000F04CC0F8
:1007A80001F04DC002F04EC003F0CD0E046ECC0E29
:1007B800056E4C0E066E7B0E076E62DD00C04BF0B8
:1007C80001C04CF002C04DF003C04EF0502ACED705
:1007D800FF0E4B14086EFF0E4C14096E7F0E4D145D
:1007E8000A6E000E4E140B6E08C004F009C005F026
:1007F8000AC006F00BC007F004360490053606362A
:100808000736000E4B14006E000E4C14016E000EDD
:100818004D14026EFF0E4E14036E00C04BF001C063
:100828004CF002C04DF003C04EF004504B10006E67
:1008380005504C10016E06504D10026E07504E10B8
:10084800036E00C04BF001C04CF002C04DF003C075
:100858004EF07F0E4E5C006E00C04AF0010E4E6EE8
:1008680000C004F04BC000F04CC001F04DC002F0D5
:100878004EC003F0045007E00036009001360236FF
:100888000336FF0FF8D700C04BF001C04CF002C090
:100898004DF003C04EF047C0E1FF48C0E2FF4E50A4
:1008A800300FE66E474A482A800E5018006E800EB8
:1008B800010A005C08E3800E060A006E800E5018DC
:1008C800005C01E30AD047C0E1FF48C0E2FF2E0EFA
:1008D800E66E474A482A010E4F6E060E4A6E4A5087
:1008E800000A54E04E6A4BC000F04CC001F04DC005
:1008F80002F04EC003F0003600900136023603368F
:10090800003600900136023603364B5000264C5014
:1009180001224D5002224E50032200C04BF001C06C
:100928004CF002C04DF003C04EF04BC000F04CC07C
:1009380001F04DC002F04EC003F0003600900136C1
:100948000236033600C04BF001C04CF002C04DF037
:1009580003C04EF047C0E1FF48C0E2FF4E50300FE1
:10096800E66E474A482A4F50000A0EE1500650509A
:10097800000A0AE147C0E1FF48C0E2FF2E0EE66E1A
:10098800474A482A010E4F6E4A06A9D7FF0E472448
:10099800E96EFF0E4820EA6EEE50300A05E1010EBE
:1009A800475E000E485AF2D7FF0E4724E96EFF0E45
:1009B8004820EA6EEE502E0A04E1010E475E000E52
:1009C800485A5050000A41E047C0E1FF48C0E2FFE2
:1009D800650EE66E474A482A800E5018006E800E53
:1009E800000A005C0BE247C0E1FF48C0E2FF2D0EA1
:1009F800E66E474A482A50500008506E50C04AF0E8
:100A0800800E090A006E800E5018005C0EE20A0E75
:100A1800046E4AC000F0F0DC47C0E1FF48C0E2FFC6
:100A28000050300FE66E474A482A0A0E046E4AC044
:100A380000F0E2DC08C000F047C0E1FF48C0E2FF78
:100A48000050300FE66E474A482A47C0E1FF48C0C9
:080A5800E2FFE66A006A1200E9
:100A600000C008F00150006E016A026A036A0B6A56
:100A70000C6A016A026A036A960E036E0A6A00AE85
:100A800048EF05F0081E001E082AD8B4002A0A8E76
:100A900000C001F008C000F0086A026A00DD120020
:100AA00071EC05F041DD800EC16EA10EC26EFF0E2D
:100AB000926E956A966A050ED56E2ADDD58EF294F1
:0E0AC000F28A9E9C9D8CF28CF28EFFD7FFD79F
:100AE20010EE1AF0140E006E010E016ECE0EF66EAE
:0E0AF2000A0EF76E000EF86EDFEC02F0120036
:040ACE000000000024
:040AD2004E614E0023
:040AD600494E46003F
:020ADA003000EA
:040ADC00000020777F
:020AE000E548E7
:020000040030CA
:0D000100220F0EFF0181FF0FC00FE00F4026
:00000001FF
