:1000000016EF00F00000000000EF00F0000000001C
:0A0010000000000000000000F3D71C
:10001C000900F5CFE6FF0006FBE10106F9E112004D
:10002C00156A010E166E030E176E070E186E0F0E64
:10003C00196E1F0E1A6E3F0E1B6E7F0E1C6EFF0E7E
:10004C001D6E070EC16E946A826A1E6A1F6A800E4C
:10005C001F18006E800E005C02E1090E1E5C18E297
:10006C00150E1E24E96E000E1F20EA6EEECF82FFE5
:10007C00020E0B6E040E0C6EBA0E0D6E0D2EFED70C
:10008C000C2EFCD70B2EFAD700001E4A1F2ADFD7E6
:04009C00DCD7FFD7D7
:020000040030CA
:0D000100220F0EFF0181FF0FC00FE00F4026
:00000001FF
